S02800004932435F515549434B5F53544152545F534C4156455F494E54455252555054312E737265633E
S1130000C8080020790D0000750D0000750D000072
S113001000000000000000000000000000000000DC
S1130020000000000000000000000000750D00004A
S11300300000000000000000750D0000750D0000B8
S1130040750D0000750D0000750D0000750D0000A4
S1130050750D0000750D0000750D0000750D000094
S1130060750D0000C9080000D9080000E908000067
S1130070F90800000909000019090000750D0000C5
S1130080750D0000750D0000750D0000750D000064
S1130090750D0000750D0000750D0000750D000054
S11300A0750D0000750D0000750D0000750D000044
S11300B00000000010B5064C2378002B07D1054B37
S11300C0002B02D0044800E000BF0123237010BDC0
S11300D0100000200000000028100000084B10B59C
S11300E0002B03D00749084800E000BF0748036815
S11300F0002B00D110BD064B002BFBD09847F9E72D
S11301000000000014000020281000002810000047
S1130110000000000C4B1B68002B06D1EFF310838A
S1130120002B07D00022094B1A70074A13680133C9
S11301301360704772B6BFF35F8F0022044B1A70CE
S11301400132024B1A70F0E72C000020300000202E
S113015000000020084B1A68013A1A601B68002B43
S113016009D1064B1B78002B05D00122044B1A70D1
S1130170BFF35F8F62B670472C0000203000002070
S113018000000020F0B583B001AC012565700027A4
S1130190A770257021003E20064EB0478022D2056C
S11301A0054B9A612770657021000F20B04703B09A
S11301B0F0BDC046BD0100008044004100B583B0DD
S11301C001AB80221A700A785A704A789A708A7839
S11301D0DA701900014B984703B000BD150D0000FB
S11301E0F0B5CE46474680B583B005000C00160036
S11301F029600B681C209B0704D503B00CBC9046F7
S11302009946F0BD0B681738DB07F6D408004D4B50
S1130210994698474C4A116A831C0127B8469F4067
S11302203B000B43136201A9737E0B701430C3B2FD
S11302301F001800454B98473800454B9847707E7F
S11302400021444B98472868C84707004249434B5C
S11302509847BF00424BFD5000232422AB54013287
S1130260AB54EB84337E6B72102323602C68338988
S1130270EB80337C2B7280236A4613700023537007
S11302806B4642469A7000236A46D370F069356A19
S113029000284BD06B46187002236A465370000C3A
S11302A0C0B269462F4B9847002D44D06B461D7051
S11302B002236A4653702D0CE8B26946294B9847CD
S11302C0B37E8022002B04D1274B9B789B07DB0F46
S11302D0DA012523F35C002B04D180239B0471698C
S11302E0994202D180231B051A43206873687169FF
S11302F00B432421715C89070B432621715CC905DA
S11303000B43034313432360728980235B0013432D
S11303106360B3895B00F28952041343727C134314
S1130320327CD20313436362002066E7002120007D
S11303300E4B9847AEE7012120000C4B984705006F
S1130340B4E7C0462108000000040040510C00003E
S1130350C50B00005D060000DD0300005D08000021
S11303607C000020150D000000200041A9060000BB
S113037010B5931C9B00C31859602424035D01210C
S113038091400B43DBB2035510BD028D0523002AB7
S113039001D0180070474B68C3620B8803850B8833
S11303A0C38405323123C254036802329A75002390
S11303B0EFE7028D0523002A01D0180070474B682F
S11303C0C3620B8803850B88C38405323123C2546E
S11303D0036802329A750023EFE7000070B58000CD
S11303E09B4BC45825682523E35C2422A65C1E404D
S11303F02B7E9B0700D495E0E38C9BB2228D934225
S11304000DD03023E35C002B09D13122A354E384C3
S11304102385B3070BD523692000984707E0E38CB5
S11304209BB29A4203D03023E35C012B22D06A8B27
S113043043231A4204D01022123BE254B30624D4BC
S1130440637A002B25D16B8B1B074AD501223023FD
S1130450E254730738D4E38C9BB2002B38D125685F
S11304607C4B984700236B838023DB026B607A4BC1
S1130470984718E000233122A354E3842385F3072B
S1130480D5D5E36820009847D1E7236A2000984730
S1130490D6E725686F4B984700236B838023DB02E4
S11304A06B606D4B984723681A7ED20701D50122F1
S11304B01A7602221A762468664B984700236383CF
S11304C06360654B984770BD636920009847C2E735
S11304D02568604B984700236B836B605E4B98479D
S11304E0E1E700223023E25433070ED4E38C9BB2BD
S11304F0002B0ED12568574B984700236B8380232C
S1130500DB026B60544B9847CDE7A3692000984702
S1130510ECE725684F4B984700236B836B604E4B89
S11305209847C0E72B7EDB072ED501232B760433B7
S11305302B752033E35C5B0705D42523E35C1B07A1
S113054001D402232B753123E35C1E2BBBD0312352
S1130550E35C102BB7D000233122A354E38423851A
S1130560B30703D53023E35C002B09D0F307AAD5E6
S11305703023E35C012BA6D1E36820009847A2E76F
S11305802369200098479EE72B7E5B079BD5238D2C
S1130590002B1ED03022A25C012A13D0E38C9BB224
S11305A0002B00D18FE73023E35C002B44D0E36AB7
S11305B05A1CE2621B78DBB22822AB54238D013B28
S11305C0238580E7E28C92B29342E7D26B8B5B0780
S11305D0E4D500232385E3843033E35C002B17D177
S11305E01C4B984700236B838023DB026B601A4B00
S11305F098476A6880239B0213436B601E22312351
S1130600E254F30600D45EE7E369200098475AE712
S1130610104B984700236B838023DB026B600E4BE7
S113062098476A6880239B0213436B60312300223E
S1130630E2542D3B2B7546E7E26A531CE362282300
S1130640EB5CDBB21370238D013B23853BE7C04693
S11306507C000020150100005501000010B582B097
S113066004000E4B1B78002B07D0002905D10B4B3F
S11306705B78834210D01D200CE001A90C7013207C
S1130680074B98471320074B9847044B5C70012293
S11306901A70002002B010BD0020FBE734000020D7
S11306A0510C0000C50B0000404B984231D00AD9D0
S11306B03F4B98424DD03F4B98425AD03E4B9842C4
S11306C037D0002070473D4B98420CD03C4B9842A9
S11306D0F7D1012917D000295DD0022915D00329AB
S11306E015D00020EEE7012907D0002951D00229B6
S11306F005D0032905D00020E4E73248E2E7324878
S1130700E0E73248DEE73248DCE73248DAE73248ED
S1130710D8E7012907D000293FD0022905D00329B1
S113072005D00020CEE72D48CCE72D48CAE72D4858
S1130730C8E7012907D0002931D0022905D00329AF
S113074005D00020BEE72848BCE72848BAE7284877
S1130750B8E7012907D0002923D0022905D00329AD
S113076005D00020AEE72348ACE72348AAE7234896
S1130770A8E7012907D0002915D0022905D00329AB
S113078005D000209EE71E489CE71E489AE71E48B5
S113079098E71E4896E7032094E71D4892E71D4812
S11307A090E71D488EE71D488CE7C04600100042C4
S11307B000180042001C00420014004200080042DD
S11307C0000C0042030005000300060003000700BC
S11307D00300010003001E0003001F0003000900C2
S11307E003000A0003000B000300110003001200C1
S11307F00300130003000D0003000E0003000F00AC
S1130800030017000300180003001900030004008C
S1130810030008000300100003000C00030016008E
S113082030B587B00B4B6A4632CB32C232CB32C2C0
S1130830009B83420BD001239A006946525882429E
S113084006D00133062BF7D1002007B030BD0023BA
S1130850D8B2FAE7CC0F000070470000F0B50A4B9D
S11308601B78002B0CD1094F094E0A4D0024DE5190
S11308705A1914600433182BF9D10122024B1A704F
S11308808000024BC150F0BD36000020380000202B
S1130890590800007C00002000B583B009236A4693
S11308A0137001335370013393700133D3700133E8
S11308B0137101335371034B98476B46185603B0B9
S11308C000BDC0462108000010B5024B1B68002083
S11308D0984710BD3800002010B5024B5B6801201A
S11308E0984710BD3800002010B5024B9B680220C9
S11308F0984710BD3800002010B5024BDB68032078
S1130900984710BD3800002010B5024B1B69042025
S1130910984710BD3800002010B5024B5B690520D4
S1130920984710BD3800002070B50C490B6A047854
S1130930857840780122104080014026B343034368
S11309402A40D2018020834313430322224012020F
S11309500348034013430B6270BDC04600080040C7
S1130960FFFCFFFF082803D88000254B1B589F4637
S1130970172044E0234A136A02210B431362002028
S11309803DE0204A936902210B439361002036E045
S11309901C4A138A02210B43138200202FE0194AB8
S11309A0938A02210B439382002028E016490B68A6
S11309B0022213430B60134B9A8419000E32CB6846
S11309C01A42FCD0104A91680E4BD96252689A625E
S11309D000229A8419001032CB681A42FCD00A4BC8
S11309E01B689BB2074A9384002008E0054944220F
S11309F08B5C022003438B54002000E000207047EE
S1130A00E40F0000000800405000002030B585B01D
S1130A10C222D2001A4B9A601A4A53681E218B4391
S1130A20536001236A4613700024174DE0B26946EF
S1130A30A8470134252CF9D103A8002444700125CA
S1130A4085700470114B98470620114B9847114B41
S1130A509847114B1C725C729C72DC7201956B4658
S1130A605C7006236A46137014725472694600203F
S1130A700A4B984700200A4B984705B030BDC04642
S1130A800008004000400041510C0000290900000A
S1130A9065090000A50A000000040040C90A00001E
S1130AA0810B0000064A936908210B4393610122DC
S1130AB0044B1A7019000B781342FCD17047C046DE
S1130AC000040040000C004070B5060004000D78DE
S1130AD02D0205434B78002B02D08023DB021D43FB
S1130AE04B7A002B02D080231B031D434868012846
S1130AF010D9431E184234D1022830D902230022CF
S1130B0001325B009842FBD8120232431400802366
S1130B105B031D430B7A002B02D080239B031D43F0
S1130B20134A53785BB2002BFBDB124B9847124BF2
S1130B301E700F4A53785BB2002BFBDB0C4B9C609E
S1130B401A0053785BB2002BFBDB094A53688021FF
S1130B5049020B401D435560084B984770BD002265
S1130B60D2E70402344380239B021D43D2E7C046EC
S1130B70000C004015010000080C00405501000065
S1130B8010B504000B4A53785BB2002BFBDB0A4B15
S1130B9098470A4B1C70074A53785BB2002BFBDB67
S1130BA0044A516880235B020B435360044B98470B
S1130BB010BDC046000C004015010000040C0040AC
S1130BC05501000010B50400064B9847064B1C70F5
S1130BD0064A53888021C9010B435380044B98472C
S1130BE010BDC04615010000020C0040000C00407E
S1130BF05501000010B504000F4B98470F4B1C70B3
S1130C000F4A53881B05180F53880E490B40538015
S1130C1053880D490B40538011008022D2014B8828
S1130C201342FCD106494A88030206480240134392
S1130C304B80064B984710BD15010000020C004084
S1130C40000C0040FFF0FFFFFFBFFFFF5501000055
S1130C5010B50C7824020443024B9847A4B2024B0B
S1130C605C8010BDF50B0000000C004030B5D3785B
S1130C70002B35D11378802B29D01B0680246402E5
S1130C80234354780225AC4306D19478002C20D118
S1130C908024A402234341605478013C012C1CD9D4
S1130CA00D042D0CA024E4052C431C4384620D0C7C
S1130CB0D02424062C431C438462D478002C22D1F3
S1130CC05B031CD59378012B1ED0416117E00023F0
S1130CD0D7E7C024E4022343DDE70D4C2340DFE7DC
S1130CE041600C04240CA023DB05234383620C0C19
S1130CF0D0231B0623438362D378002B03D153787C
S1130D00013B012B02D930BD8161F8E78160FAE72C
S1130D10FFFFFBFF10B50A00C1090023002904D11D
S1130D204309DB0105498C4663441F24204001210B
S1130D3081401800024B984710BDC0460044004152
S1130D406D0C00007047000010B5054B9847054B2B
S1130D509847054B9847054B9847054B984710BD56
S1130D600D0A000085010000450D0000450D00003E
S1130D70450D0000FEE70000F8B52A4A2A4B9A42C6
S1130D8011D01A00294B9A420DD2294A03339B1AD7
S1130D909B0801339B000022234822498C5884502D
S1130DA004329A42FAD1234A234B9A420AD2D343B9
S1130DB021495B1803218B4304339B18002102C291
S1130DC09342FCD11D4AFF211D4B8B439360FD3997
S1130DD090235B001B4AD1501B4AD3780325AB43B5
S1130DE002242343D370D3780C27BB430826334310
S1130DF0D370164B987B3022904320221043987373
S1130E00997BB943314399739A7BAA4322439A73DA
S1130E100F4A536880210B4353600E4B98470E4B87
S1130E209847FEE728100000000000201000002072
S1130E300400002010000020C800002000ED00E0A5
S1130E4000000000007000410050004100480041D3
S1130E5000400041850F0000690F000010B50449EF
S1130E600A230B80034B4B60034B984710BDC046CD
S1130E706800002004000020B303000010B50449FA
S1130E800A230B80034B4B60034B984710BDC046AD
S1130E9068000020700000208B03000030B58BB088
S1130EA000226B461A7080239B03019301235B424B
S1130EB069460B8100234A81CA810B744B740592E5
S1130EC00B764B768B760792089224328B54013240
S1130ED08B5401328B5412236A468B810C4D0D497D
S1130EE028000D4B98472C6820000C4B98471F2373
S1130EF018401E3B83400A4A136029680322CB69C9
S1130F001A42FCD123680222134323600BB030BD84
S1130F109400002000100042E10100009908000044
S1130F2000E100E0F8B50C4C02220C4920000C4F03
S1130F30B8472525635D04221343635502262368BD
S1130F409E75013A07492000B847635D08221343A0
S1130F50635523689E75F8BD940000205D0E000063
S1130F60710300007D0E000010B5034B9847034B3E
S1130F709847034B9847FEE7490D00009D0E00007B
S1130F80250F000070B500260C4D0D4C641BA410F9
S1130F90A64209D1002600F037F80A4D0A4C641B1A
S1130FA0A410A64205D170BDB300EB589847013692
S1130FB0EEE7B300EB5898470136F2E7141000004F
S1130FC01410000014100000181000000008004263
S1130FD0000C0042001000420014004200180042BD
S1130FE0001C004290090000700900007009000014
S1130FF0FC090000820900009E0900007409000039
S1131000AC090000EC090000F8B5C046F8BC08BC07
S11310109E467047DD000000F8B5C046F8BC08BC29
S10B10209E467047B500000074
S11310280100000000010203040506070809000086
S9030D7976
